:400000000010002011000000650100006501000010B501F021F900F07FFA00F0ABF8C04610B50B4C12232360182001F09FF880229200084B1A60084A084B1A600022084BB8
:400040001A604032074B1A601123236010BDC046300010400003014040FF008000000140280003400401014010B572B6054A064B1A600322054B1A60054A064B1A60FFF7C3
:40008000CFFF10BDEEEE00000003024000030440A40D000008030440000000000000000000000000000000000000000000000000000000000000000000000000000000003D
:4000C0000000000000000000000000000000000000000000000000000000000000000000000000000000000000000000000000000000000000000000000000000000000000
:4001000010B5064C2378002B07D1054B002B02D0044800E000BF0123237010BD1001002000000000741A0000084B10B5002B03D00749084800E000BF07480368002B00D184
:4001400010BD064B002BFBD09847F9E70000000014010020741A0000880000200000000062B6FEE710B501F043FC03680C2B00D1FEE7FEE770B50F4E0F4D13E029686B68DD
:40018000AC68002202E001C901C30432A242FAD1E868002202E0002102C304328242FAD11035013E002EE9D101F028FCFFF7D8FFFEE7C04601000000081B000010B5002370
:4001C0000AE0032B03D89A000B49505800E00B4899000B4A885001331F2BF2D9FFF744FF084B1B68002B02D10022064B1A6080229205054B1A6010BD000000006501000004
:40020000000000208000002008ED00E070B500291FD00E00104A8B1BC45C00230CE015006540ED0704D552080C4D6A4092B200E0520864080133DBB2072BF0D9013EB6B27E
:40024000002EE8D1D24392B2100280B2120A104300E0002070BDC046FFFF00000884FFFF0047C046F0B583B00D006B469E1DDA8001230B7048701400AA70130ACB70171DC7
:40028000B9B22800FFF7C2FFE855631D000AE854A31D1722EA540734A1B296233200280000F0BCFC03B0F0BD70B505000E001400002802D0002000F093FE002005E0013CE8
:4002C000AB19E3181B781818C0B2002CF7D170BD70B5A0B0C5097F2304009C43002304E01A5D6E46F25401339BB27F2BF8D97F2318406B461B5C8B4206D06B46195428049E
:40030000000C694600F068FD20B070BD70B50500012811D80DE0611B4B425941C9B2E0014042064B9C466044FFF7D2FF0134E4B200E00024012CEED970BDC046D07F000023
:4003400010B50C2863D88000404B1B589F464B06591ACB013E4A9446634401225CE04B06591ACB013B4A94466344042254E04B06591ACB01384A9446634402224CE04B06CA
:40038000591ACB01354A94466344042244E04B06591ACB01324A9446634401223CE04B06591ACB012F4A94466344012234E04B06591ACB012C4A9446634402222CE04B061F
:4003C000591ACB01294A94466344022224E04B06591ACB01264A9446634402221CE04B06591ACB01234A94466344042214E04B06591ACB01204A9446634401220CE04B068E
:40040000591ACB011D4A94466344042204E0002000F0E6FD02220023012A02D11878C0B200E00020022A03D11978587800020843042A09D11A785878000210439A781204BC
:400440001043DB781B06184310BDC046781A0000C07F0000C17F0000C57F0000C97F0000D07F0000D17F0000D67F0000D27F0000D47F0000D87F0000DC7F0000E07F000041
:40048000F0B5474680B40500884616001F0001281FD801000320FFF753FF013084B2FE20001B80B20221491BC9B201F0B5F983B2E3189BB2013B9BB2B44201D8B3420AD229
:4004C0004346002B09D1FF335D1BAF4207D0002006E00D2004E00D2002E0002000E00D2004BC9046F0BDC04610B500210520FFF727FFC4B201210520FFF722FFC0B2002CC7
:4005000002D0002804D106E0002803D0012002E0032000E0022010BD10B5124B1B68DB0602D40022104B1A600F4B1B68802B18D10E4B1C78E4B2012C02D9FFF7D5FF0400F9
:400540000022094B1A6021000220FFF7F9FE002807D0012C05D821000220FFF7F1FEFFF77FFE10BD54000340800000208C00002070B5050001000320FFF7E2FE441CE4019E
:4005800029000420FFF7DCFE2418012D2ED829000620FFF7D5FE01282AD029000320FFF7CFFE0130C0010023002608E001784A1ED2B2FD2A00D801265B18DBB20130A042A3
:4005C000F4D35B42DCB229000120FFF7B9FE844210D1002E10D06B065D1BE801074B9C4660440121FFF774FE002006E0062004E0002002E0062000E0062070BDD17F00006E
:40060000F0B55F4656464D464446F0B4BC4CA544050000F0B1FA62B600239946002601930A249846002D01D1FF2300E02B00B54A04A98C4662449621490072A800F0B8FA96
:40064000002D01D0013CE4B2002C01D00028E9D1002800D050E2AB4B04AA944663441B88062B24D972AA1278012A22D172A9CA78120289780A439046110007329A421AD839
:4006800096235B009A4218D84A1D72AB9F5C3A02081D1F5C174306315B5C172B0FD181B272A8FFF7B3FD87420BD100270AE0042708E0042706E0032704E0032702E0042783
:4006C00000E00827002F00D0AEE172AB1A7993465A781300313BD9B20A2900D972E18B008949CB589F46012E00D09FE14346002B00D09EE1854B1878C0B2FFF739FF43422D
:40070000434172AA13710122EFE1012E00D093E14346012B00D092E15B46002B00D091E17A4B5B681B68DA0BD2B2934503D1DB09FF22134005E0934501D9002301E0802373
:400740005B0072AA13711B0A5371FF2393710023D3710422C9E1012E00D076E14346012B00D075E15846FFF703FF04ABDE2252009B18187059460520FFF7E2FD04ABBE220D
:40078000FF329B181870BC3AFF3AAEE1342A0DD1012E00D05FE14346032B00D05EE14C32002127A801F059F980239946012E00D057E14346022B00D856E127A84844DA1E4C
:4007C000C021FF3104AB9C46614401F03DF943464B449BB2832B00D049E172AA93791B02527913439946FF2B00D90A27002F00D044E15B461B024B449BB29846434B5B6818
:400800001A68D3099BB2520601D001339BB2434500D937E13D4B1B78DBB2012B0AD83B4B1878C0B24B4642465946FFF729FE0D2800D12EE1019B002B12D18022002107A8A6
:4008400001F00BF9314B1B78002B01D1012000E00020FF23181A07A900F0BEFA0123019327A9404600F0B8FA002800D118E100239946803398460A27002236E1012E00D10B
:4008800038E10427002230E1012E00D00EE14346012B00D00DE15846FFF76AFE002800D00AE15846FFF732FD184B5A461A7000221BE1012E00D002E143464B44962252000F
:4008C000934200D9FEE027A84844424673A901F0BBF84B4643449BB29946002205E14346002B00D0F1E007AA094B03CB03C273AA07AB03CB03C20023994601260822F4E007
:4009000004FDFFFFE6020000AC1A00008C000020D81A0000012E00D0DAE04346032B00D0D9E072AA93791B02527913439A465B4619025144C9015346FF2B00D90A27002F16
:4009400000D0CBE080220020FFF7AEFC020003905B461B02534499B25B46002B1CD10B00FE3B9BB2012B17D80B00FF3B1A00531E9A41D3B2029319000520FFF7E1FCC0B2B8
:40098000039A131ADAB2934602990620FFF7D8FCC2B25B469A1AD2B2524272AB1A710122A3E05D4B1878C0B2FFF7E2FD002802D180225A4B1A6000F0F7F800F04BFB0427D3
:4009C000002292E0564B1B689A46002B00D187E0012E00D087E004AB1A714246DA8073AF06970C22002107A801F037F807AB9B460997190005A8D0475B469A882623FF334F
:400A00009A4203D973AB0999994207D0099B002B01D1002A05D1079BDFB266E00E27002263E00E27002260E000225EE0042700225BE00427002258E00427002255E0042727
:400A4000002252E0042700224FE0042700224CE00427002249E00427002246E00427002243E00427002240E0042700223DE000239946803398460327002236E08023984687
:400A8000002232E000239946803398460A2700222BE007000023994680339846002224E0002399468033984600221EE0042700221BE00427002218E00C27002215E004279C
:400AC000002212E0032700220FE0042700220CE00427002209E00427002206E0002204E00527002201E00527002272A93800FFF7B9FB01E000239946002D00D192E5012EFE
:400B000000D18FE5BF239B009D443CBC90469946A246AB46F0BDC0468C000020800000202C0100200F4B1B685B0619D50E4B1B68DB060BD50D4B1B68002B11D00C4A1360C7
:400B400000230C4A1360094A136009E0094B1A68074B1B689A4203D0054B1A68054B1A607047C0464C0F09406400094030010020F0010020D401002010B5094C201D4021C7
:400B800000F082F820004430002100F05FF8054800F0BAFB0023236000F090FB10BDC04630010020250B000010B500F097FB10BDF8B507000E001500002825D0002925D042
:400BC0009A00D3185C001BE0114B1B78DB0613D5104B1A682A8000220D490A701A602B88321C9E4200D91A1C92B20B490431380000F02AFF00200AE0012000F037FA013CD7
:400C0000002CE1D1102002E0012000E00120F8BDDC010020D80100203001002070B50C0000280DD000290DD01180074D2B0044330A000100180000F007FF2C60002002E03C
:400C4000012000E0012070BD3001002070B504000D0000280ED0082000F0AEF9064B1C60064B1D600023064A1360064A1360082000F098F970BDC046E4010020F0010020A3
:400C8000D4010020E001002070B504000D0000280CD0082000F090F9054B1C60054B1D600022054B1A60082000F07CF970BDC046E8010020EC010020D801002082B0134B7F
:400CC0000093134B0193134B6A461A601249134A1160C0461B681B0F1B07F0221206934204D10C4B1B68FF2018400DE0094B1B681B0F1B07A0221206934204D0054B1B685E
:400D0000FF20184000E0002002B07047B6E90000B4010020080010401600008004001040104B114A1A601149114A1160C0461B681B0F1B07F0221206934204D1094B1B6847
:400D4000FF2018400DE0074B1B681B0F1B07A0221206934204D0034B1B68FF20184000E00020704708001040B6E80000150000800400104082B0134B0093134B0193134B1A
:400D80006A461A601249134A1160C0461B681B0F1B07F0221206934204D10C4B1B68FF2018400DE0094B1B681B0F1B07A0221206934204D0054B1B68FF20184000E0002009
:400DC00002B07047B6EA0000B401002008001040170000800400104030B5A5B00400002323932293FF2872D8002970D0802202A800F02AFE384B00937F230193374B6A464A
:400E00001A603749374A1160C0461B681B0F1B07F0221206934204D1304B1B68FF2213400DE02E4B1B681B0F1B07A0221206934204D02A4B1B68FF22134000E000232393CE
:400E4000239B002B45D100F018FA0500FFF736FF2290229B002B02D1FFF762FF2390239B002B25D1204A0092009A2404144300941A4A694611601D481A490860C04612680E
:400E8000120F1207F02109068A4204D1134B1B68FF2213400BE0114A1268120F1207A02109068A4203D00D4B1B68FF2213402393229B002B07D1FFF75DFF2290229B002BC8
:400EC00001D0229B2393280000F0DBF901E004232393239825B030BDB6D70000080010400400008004001040B6D800000500008070B5040000F0C1F90500102C05D8104A6C
:400F0000136803218B43136016E0202C07D80C490B6803229343023A13430B600CE0302C07D807490B6803229343013A13430B6002E0002000F054F8280000F0A2F970BDF1
:400F4000300010400C4B1B689B001C22134018330A4A1268920803210A40D34008490868084A02400A60084A944663441B78DBB2064A13607047C046080F034028000340C0
:400F800000000740FFFFFFBFCDF1FF0F0C0F0340034B18688023DB05184000D001207047000007401F2318401E3B8340014A13607047C04600E100E01F2318401E3B8340C4
:400FC000014A13607047C04680E100E01F2318401E3B8340014A13607047C04680E200E001BE704770B504000D000F2802D90020FFF7F6FF1034A40080239B059C46644444
:401000002068256070BDC04670B504000E00032902D90020FFF7E4FF0F2C02D90020FFF7DFFF03252540ED00063500F026F9A408A400074B9C46644421680323AB409943C9
:401040000B003100A9401943216000F01AF970BD00E400E0034A13681B041B0C02490B43136070470CED00E00400FA0510B5040006E0084B586800F0F7F8074B9C46644450
:4010800080231B029C42F4D8024B9868604300F0EBF810BD980000200080FFFF70B582B000F0D0F800284DD000F0E7F80500264B1A6892001C231A401832244B1B689B08DB
:4010C00003210B40DA400021214B1960214C2168214B0B4021494A438021C9018C466244D20B013A5205520D1343A0225203134323601B4B1B6801933020FFF7F9FE194AA9
:4011000013688021C9050B4313602668164B1E40002407E00120FFF7A9FF1034A30533430C4A1360EE2CF5D90120FFF79FFFFF239B051E43074B1E60019A094B1A602800A1
:4011400000F09FF802B070BD080F0340280003400C0F03400800074000F800C040420F003000104000000740FFFF3FC0F0B583B0040018280BD01C2809D0202807D024280B
:4011800005D0282803D02C2801D0302849D100F074F80190FFF7FCFE002803D0FFF7D2FE012600E00026214A136807218B4313601F4BE3181B78DBB21E4A13601E4A136843
:4011C0008B4313601D4803687F22934319001C4BE3181B7813400B430360322000F044F8182C16D9114F3B680725AB431A0023001C3B9B082B4013433B60322000F034F886
:401200003A68AA432300183B9B082C001C4014433C60012E01D1FFF741FF019800F031F802E00020FFF7DCFE03B0F0BD080F0340CDF1FF0F0C0F0340100F0340180F034020
:40124000B4F1FF0F034B1B68002B01DA012000E00020704700000740014A024B1A6070476588EDAC380003400230800803D001300238FCD1C046C0467047EFF3108072B6D9
:40128000704780F31088704710B50820FFF78AFE10BDC04610B500F0A5F810BD10B500F039F810BD10B5044A1368802109060B431360FFF7E9FF10BD0000094010B5064B9C
:4012C0001B78002B04D1FFF7E9FF0122024B1A70FFF7E8FF10BDC046CC01002010B50820FFF76AFEFFF7D6FF054A13685B005B0813600022034B1A600820FFF767FE10BD9B
:4013000000000940880F0940014B58607047C046CC01002010B5802252001C4B1A601C4A1C4B1A601C4B1D4A136000241C4A14601C491D4A11601D4A13601D4B1C60082093
:40134000FFF73AFE03210820FFF75EFE19490820FFF748FE184B1C60184B1C604C22FF32174B1A60174B1C60174B1C60174B1C603C3AFF3A164B1A70164B1C70164B1C60A4
:40138000164B1C60164B1C7010BDC0460000094077080040600009400701008000030940040309401000FE0010030940000209400402094061140000C80E0940880E094044
:4013C000480F0940080F0940C80F0940880F0940F5010020DC010020D4010020D8010020F40100200023044A1360044A13601022034B1A707047C046680009406C00094005
:40140000F501002010B50E4A13685B005B08136000230C490B600C490B600C4804680C49214001600B490B600B490B6010210B4B19701368802109060B43136010BDC04606
:4014400000000940680009406C00094060000940FF5CFFFF880F0940C80F0940F501002010B5CA4B1B68002B00D09847C84B1B68DB0702D50022C74B1A60C74B1B789B062B
:4014800022D4C64B1A680223FF331A421CD0C24B1B78DB070AD5C24A137802218B431370117809230B43DBB213700AE0BC4A137820218B431370117870235B420B43DBB2E4
:4014C00013700022B44B1A70B34B1B789B0600D55AE1B14B1B78DB0600D453E1AF4B1B689B0740D50222AF4B1A60AF490B681D321A40096880231B020B4000D001239B1801
:40150000AA4A1278D2B2934206D2A54A117804230B43DBB2137006E0A44A12789B1AA4490A68D31A0B60A24B1A68A24B1A600023A14A13609D4A1370A04B1A68802149021B
:401540000A431A6019689E4A0A401A60944A137802218B431370117801230B43DBB2137010228D4B1A708D4B1B681B0739D508228C4B1A60934B1B689B040CD414E0924B44
:401580001A68924909688A1891490968C9B211701A6801321A608F4B1B68DB06EFD1894A11688D4B0B4013608C4B1B689B0605D57B4A117840230B43DBB213700022884B8C
:4015C0001A60884A854B1A60754A137820218B431370117810230B43DBB213706E4B10221A706E4B1B685B0648D501227E4B1A607E4B1B68DB0610D50F326F4B1A606D4B8B
:401600001A686B4B1A60664A117802230B43DBB213701222604B1A7025E0754B1B686A4A12689B1A072B03D804226D4B1A6011E0082B06D1634A1368A02109020B43136093
:4016400008E0604A1368802189010B4313600822634B1A60524A117820230B43DBB2137011224D4B1A70634A4E4B1A60624A116808230B4313600122604B1A60604B1B68BD
:401680001B072AD55A4B1B684F4A1068181A0838082802D9002408200EE001240CE04A4B1A684A4909688A1849490968C9B211701A6801321A6001380028F0D1002C08D0F7
:4016C000404A1368802109020B4313600022444B1A600822414B1A6025E0494B1B685B0721D53B4B1B68384A1168414A126891420DD20121414A1160334A116833480068F7
:401700004118DBB20B7013680133136008E002223A4B1A60224A117840230B43DBB2137004222E4B1A60374B1B68DB0620D42BE01F4B1A68344B1B689A420CD21C4B1A68D6
:40174000324909688A181278D2B231490A601A6801321A600CE0FF222D4B1A60134B1B78DBB20A2B04D8114A13780133DBB213700D4B1B681F221340082BD9D10F3A254BFD
:401780001A6001E0FFF73EFE10BDC046D00100208C0E0940880E0940F50100204C0F0940DC010020400F094008020940F4010020E0010020D4010020880F0940040209403A
:4017C000FFFFFEFF60000940D8010020E80100204003094008030940FF5FFFFFC00F0940C80F0940ED0F0000800E094064000940EC010020FF0F0000480F09406C000940DF
:40180000CC0F09408C0F0940F0010020E401002040020940800F094003460B437FD4002243088B4274D303098B425FD3030A8B4244D3030B8B4228D3030C8B420DD3FF220D
:40184000090212BA030C8B4202D31212090265D0030B8B4219D300E0090AC30B8B4201D3CB03C01A5241830B8B4201D38B03C01A5241430B8B4201D34B03C01A5241030B36
:401880008B4201D30B03C01A5241C30A8B4201D3CB02C01A5241830A8B4201D38B02C01A5241430A8B4201D34B02C01A5241030A8B4201D30B02C01A5241CDD2C3098B4234
:4018C00001D3CB01C01A524183098B4201D38B01C01A524143098B4201D34B01C01A524103098B4201D30B01C01A5241C3088B4201D3CB00C01A524183088B4201D38B008E
:40190000C01A524143088B4201D34B00C01A5241411A00D201465241104670475DE0CA0F00D04942031000D34042534000229C4603098B422DD3030A8B4212D3FC228901D2
:4019400012BA030A8B420CD3890192118B4208D3890192118B4204D389013AD0921100E08909C3098B4201D3CB01C01A524183098B4201D38B01C01A524143098B4201D3DA
:401980004B01C01A524103098B4201D30B01C01A5241C3088B4201D3CB00C01A524183088B4201D38B00C01A5241D9D243088B4201D34B00C01A5241411A00D20146634614
:4019C00052415B10104601D34042002B00D54942704763465B1000D3404201B5002000F005F802BD0029F8D016E770477047C046014B18687047C0460C0100200E4B70B57A
:401A000000251E000D4CE41AA410A54204D0AB00F35898470135F8E700F064F8084B00251E00084CE41AA410A54204D0AB00F35898470135F8E770BDF01A0000F01A0000E5
:401A4000F01A0000F81A0000002310B59A4203D0CC5CC4540133F9E710BD03008218934202D019700133FAE770470000001C000021000000000000000E0400004E03000059
:401A80005E0300006E0300007E0300008E0300009E030000BE030000AE030000CE030000DE030000EE030000FE030000E60600000A070000560700008C0700007C0800001A
:401AC00088080000B2080000DE0800008C07000014090000A2090000A9112119003C010143000000F8B5C046F8BC08BC9E46704729010000BD010000F8B5C046F8BC08BC0D
:401B00009E46704701010000181B00008800002088000000E800000000000000020000006C1A0000701A0000010000000000E02EC05D00001800000000366E0100000000C2
:401B400000000000000000000000000000000000000000000000000000000000E01A000000000000000000000000000000000000000000000000000000000000000000006B
:401B800000000000000000000000000000000000000000000000000000000000AC000020000000000000000000000000000000000000000000000000000000000000000059
:401BC00000000000000000000000000000000000000000000000000000000000000000000000000000000000000000000000000000000000000000000000000000000000E5
:401C000000000000000000000000000000000000000000000000000000000000000000000000000000000000000000000000000000000000000000000000000000000000A4
:401C40000000000000000000000000000000000000000000000000000000000000000000000000000000000000000000000000000000000000000000000000000000000064
:401C80000000000000000000000000000000000000000000000000000000000000000000000000000000000000000000000000000000000000000000000000000000000024
:407FC000000000000000000000000000000000000000000002010000000000000000000000000000000000000000000000000000000000000000000000000000000000007E
:0200000490303A
:020000008BCBA8
:0200000490402A
:200000000000000000000000000000000000000000000000000000000000000000000000E0
:0200000490501A
:0C0000000002192111A9000119299D74AA
:0200000490600A
:0100000001FE
:00000001FF