:400000000010002011000000650100006501000010B501F063F800F019FA00F0ABF8C04610B50B4C12232360182000F0E1FF80229200084B1A60084A084B1A600022084B95
:400040001A604032074B1A601123236010BDC046300010400003014040FF008000000140280003400401014010B572B6054A064B1A600322054B1A60054A064B1A60FFF7C3
:40008000CFFF10BDEEEE00000003024000030440A40D000008030440000000000000000000000000000000000000000000000000000000000000000000000000000000003D
:4000C0000000000000000000000000000000000000000000000000000000000000000000000000000000000000000000000000000000000000000000000000000000000000
:4001000010B5064C2378002B07D1054B002B02D0044800E000BF0123237010BD100100200000000024170000084B10B5002B03D00749084800E000BF07480368002B00D1D7
:4001400010BD064B002BFBD09847F9E7000000001401002024170000880000200000000062B6FEE710B501F09BFA03680C2B00D1FEE7FEE770B50F4E0F4D13E029686B68DA
:40018000AC68002202E001C901C30432A242FAD1E868002202E0002102C304328242FAD11035013E002EE9D101F080FAFFF7D8FFFEE7C04601000000BC17000010B500236A
:4001C0000AE0032B03D89A000B49505800E00B4899000B4A885001331F2BF2D9FFF744FF084B1B68002B02D10022064B1A6080229205054B1A6010BD000000006501000004
:40020000000000208000002008ED00E070B500291FD00E00104A8B1BC45C00230CE015006540ED0704D552080C4D6A4092B200E0520864080133DBB2072BF0D9013EB6B27E
:40024000002EE8D1D24392B2100280B2120A104300E0002070BDC046FFFF00000884FFFF0047C046F0B583B00D006B469E1DDA8001230B7048701400AA70130ACB70171DC7
:40028000B9B22800FFF7C2FFE855631D000AE854A31D1722EA540734A1B296233200280000F0FEFB03B0F0BD70B505000E001400002802D0002000F0D5FD002005E0013C66
:4002C000AB19E3181B781818C0B2002CF7D170BD70B5A0B0C5097F2304009C43002304E01A5D6E46F25401339BB27F2BF8D97F2318406B461B5C8B4206D06B46195428049E
:40030000000C694600F0AAFC20B070BD10B50C2863D88000404B1B589F464B06591ACB013E4A9446634401225CE04B06591ACB013B4A94466344042254E04B06591ACB0160
:40034000384A9446634402224CE04B06591ACB01354A94466344042244E04B06591ACB01324A9446634401223CE04B06591ACB012F4A94466344012234E04B06591ACB0133
:400380002C4A9446634402222CE04B06591ACB01294A94466344022224E04B06591ACB01264A9446634402221CE04B06591ACB01234A94466344042214E04B06591ACB01A1
:4003C000204A9446634401220CE04B06591ACB011D4A94466344042204E0002000F042FD02220023012A02D11878C0B200E00020022A03D11978587800020843042A09D135
:400400001A785878000210439A7812041043DB781B06184310BDC04628170000C07F0000C17F0000C57F0000C97F0000D07F0000D17F0000D67F0000D27F0000D47F000006
:40044000D87F0000DC7F0000E07F000010B50D4B1B68DB0602D400220B4B1A600A4B1B68802B0ED10022084B1A6000210220FFF74DFF002805D000210220FFF747FFFFF7DA
:40048000EFFE10BD540003408000002070B5050001000320FFF73AFF441CE40129000420FFF734FF241829000620FFF72FFF012828D029000320FFF729FF421CD201002385
:4004C000002608E01078411EC9B2FD2900D801261B18DBB20132A242F4D35B42DCB229000120FFF713FF84420ED1002E0ED06B065D1BE801064B9C4660440121FFF7E8FEF4
:40050000002004E0002002E0062000E0062070BDD17F0000F0B55F4656464D464446F0B4CC4CA544050000F069FA62B600239A46984600930A240027002D01D1FF2300E02A
:400540002B00C54A02A98C4662449621490070A800F070FA002D01D0013CE4B2002C01D00028E9D1002800D00CE2BB4B02AA944663441B88062B24D970AA1278012A22D150
:4005800070A9CA78120289780A431700110007329A421AD896235B009A4218D87A1D70AB9E5C3202381D1E5C164306315B5C172B0FD181B270A8FFF729FE86420BD1002625
:4005C0000AE0042608E0042606E0032604E0032602E0042600E00826002E00D078E170AB1A7993465A781300313BD9B20B2900D93EE18B009949CB589F464346012B00D0BF
:4006000068E1012F00D068E15B46002B00D067E15846FFF73BFF002800D064E15B465B065A469B1AD9018E4B9C466144382271A801F062F838229EE14346012B00D055E156
:40064000002F00D055E10020FFF720FF4342434170AA137101228EE14346012B00D04BE1012F00D04BE15B46002B00D04AE17D4B1B681B68DA0BD2B2934503D1DB09FF224B
:40068000134005E0934501D9002301E080235B0070AA13711B0A5371FF2393710023D371042268E1342A0DD14346012B00D02CE1032F00D02CE14C32002125A801F025F874
:4006C00080239A464346012B00D024E1022F00D824E125A85044FA1EC021FF3102AB9C46614401F009F83B0053449BB2832B00D017E170AA93791B02527913439A46FF2B2C
:4007000000D90A26002E00D011E15B461F025744BFB2544B1B681A68D3099BB2520601D001339BB2BB4200D904E1009B002B0AD18022002105A800F0E8FF05A9FF2000F01B
:400740008DFA0123009325A9380000F087FA002800D1F5E000239A4680270A2600220AE14346012B00D10BE10426002203E14346012B00D0E9E05346FB1896225200934294
:4007800000D9E5E025A850443A0071A900F0B4FF5346FB189BB29A460022ECE0002F00D0D9E005AA304B03CB03C271AA05AB03CB03C200239A46013398460822DBE0434626
:4007C000012B00D0CAE0032F00D0CAE070AA93791B025279134399465B4619024944C9014B46FF2B00D90A26002E00D0BCE080220020FFF759FD030001905A4612024A440F
:4008000092B25946002911D1FF2A0FD10520FFF77DFDC0B2019B1B1ADBB2994600210620FFF774FDC3B24A46D31ADBB25B4270AA137101229FE00020FFF728FE002802D13C
:4008400080220A4B1A6000F0F1F800F045FB0426002290E00CFDFFFFE60200005C170000C07F00008C0000208C170000800000204C4B1E68002E79D04346012B79D102AB72
:400880001A71DF8071AB04930C22002105A800F03CFF05AB9B4671AA0792190003A8B0475B469A882623FF339A4203D971AB0799994207D0079B002B01D1002A05D1059BD1
:4008C000DEB258E00E26002255E00E26002252E0002250E0042600224DE0042600224AE00C26002247E00C26002244E00426002241E0042600223EE0042600223BE0042681
:40090000002238E00426002235E00426002232E0042600222FE0042600222CE00426002229E000239A4680270326002223E08027002220E000239A4680270A2600221AE0FF
:4009400000239A468027002215E00426002212E0032600220FE0042600220CE00426002209E00426002206E0002204E00526002201E00526002270A93000FFF773FC01E08F
:4009800000239A46002D00D1D6E54346012B00D1D2E5BD239B009D443CBC90469946A246AB46F0BD2C0100200F4B1B685B0619D50E4B1B68DB060BD50D4B1B68002B11D0B2
:4009C0000C4A136000230C4A1360094A136009E0094B1A68074B1B689A4203D0054B1A68054B1A607047C0464C0F09406400094030010020F0010020D401002010B5094C1E
:400A0000201D402100F082F820004430002100F05FF8054800F0BCFB0023236000F092FB10BDC04630010020A909000010B500F099FB10BDF8B507000E001500002825D0BB
:400A4000002925D09A00D3185C001BE0114B1B78DB0613D5104B1A682A8000220D490A701A602B88321C9E4200D91A1C92B20B490431380000F040FE00200AE0012000F093
:400A800037FA013C002CE1D1102002E0012000E00120F8BDDC010020D80100203001002070B50C0000280DD000290DD01180074D2B0044330A000100180000F01DFE2C603D
:400AC000002002E0012000E0012070BD3001002070B504000D0000280ED0082000F0AEF9064B1C60064B1D600023064A1360064A1360082000F098F970BDC046E401002034
:400B0000F0010020D4010020E001002070B504000D0000280CD0082000F090F9054B1C60054B1D600022054B1A60082000F07CF970BDC046E8010020EC010020D80100207F
:400B400082B0134B0093134B0193134B6A461A601249134A1160C0461B681B0F1B07F0221206934204D10C4B1B68FF2018400DE0094B1B681B0F1B07A0221206934204D022
:400B8000054B1B68FF20184000E0002002B07047B6E90000B4010020080010401600008004001040104B114A1A601149114A1160C0461B681B0F1B07F0221206934204D1CD
:400BC000094B1B68FF2018400DE0074B1B681B0F1B07A0221206934204D0034B1B68FF20184000E00020704708001040B6E80000150000800400104082B0134B0093134BB7
:400C00000193134B6A461A601249134A1160C0461B681B0F1B07F0221206934204D10C4B1B68FF2018400DE0094B1B681B0F1B07A0221206934204D0054B1B68FF20184098
:400C400000E0002002B07047B6EA0000B401002008001040170000800400104030B5A5B00400002323932293FF2872D8002970D0802202A800F040FD384B00937F230193E8
:400C8000374B6A461A603749374A1160C0461B681B0F1B07F0221206934204D1304B1B68FF2213400DE02E4B1B681B0F1B07A0221206934204D02A4B1B68FF22134000E0F7
:400CC00000232393239B002B45D100F01AFA0500FFF736FF2290229B002B02D1FFF762FF2390239B002B25D1204A0092009A2404144300941A4A694611601D481A49086035
:400D0000C0461268120F1207F02109068A4204D1134B1B68FF2213400BE0114A1268120F1207A02109068A4203D00D4B1B68FF2213402393229B002B07D1FFF75DFF2290B1
:400D4000229B002B01D0229B2393280000F0DDF901E004232393239825B030BDB6D70000080010400400008004001040B6D800000500008070B5040000F0C3F90500102C38
:400D800005D8104A136803218B43136016E0202C07D80C490B6803229343023A13430B600CE0302C07D807490B6803229343013A13430B6002E0002000F054F8280000F004
:400DC000A4F970BD300010400C4B1B689B001C22134018330A4A1268920803210A40D34008490868084A02400A60084A944663441B78DBB2064A13607047C046080F0340E3
:400E00002800034000000740FFFFFFBFCDF1FF0F0C0F0340034B18688023DB05184000D001207047000007401F2318401E3B8340014A13607047C04600E100E01F231840F6
:400E40001E3B8340014A13607047C04680E100E01F2318401E3B8340014A13607047C04680E200E001BE704770B504000D000F2802D90020FFF7F6FF1034A40080239B0533
:400E80009C4664442068256070BDC04670B504000E00032902D90020FFF7E4FF0F2C02D90020FFF7DFFF03252540ED00063500F028F9A408A400074B9C4664442168032386
:400EC000AB4099430B003100A9401943216000F01CF970BD00E400E0034A13681B041B0C02490B43136070470CED00E00400FA0510B5040006E0084B586800F0F9F8074B91
:400F00009C46644480231B029C42F4D8024B9868604300F0EDF810BD940000200080FFFF70B582B000F0D0F800284DD000F0E9F80500264B1A6892001C231A401832244BF8
:400F40001B689B0803210B40DA400021214B1960214C2168214B0B4021494A438021C9018C466244D20B013A5205520D1343A0225203134323601B4B1B6801933020FFF75E
:400F8000F9FE194A13688021C9050B4313602668164B1E40002407E00120FFF7A9FF1034A30533430C4A1360EE2CF5D90120FFF79FFFFF239B051E43074B1E60019A094B6B
:400FC0001A60280000F0A1F802B070BD080F0340280003400C0F03400800074000F800C040420F003000104000000740FFFF3FC0F0B583B0040018280BD01C2809D020280C
:4010000007D0242805D0282803D02C2801D0302849D100F076F80190FFF7FCFE002803D0FFF7D2FE012600E00026214A136807218B4313601F4BE3181B78DBB21E4A136082
:401040001E4A13688B4313601D4803687F22934319001C4BE3181B7813400B430360322000F046F8182C16D9114F3B680725AB431A0023001C3B9B082B4013433B6032203E
:4010800000F036F83A68AA432300183B9B082C001C4014433C60012E01D1FFF741FF019800F033F802E00020FFF7DCFE03B0F0BD080F0340CDF1FF0F0C0F0340100F0340EC
:4010C000180F0340B4F1FF0F034B1B68002B01DA012000E00020704700000740014A024B1A6070476588EDAC38000340000000000230800803D001300238FCD1C046C04642
:401100007047EFF3108072B6704780F31088704710B50820FFF788FE10BDC04610B500F0A5F810BD10B500F039F810BD10B5044A1368802109060B431360FFF7E9FF10BD2D
:401140000000094010B5064B1B78002B04D1FFF7E9FF0122024B1A70FFF7E8FF10BDC046CC01002010B50820FFF768FEFFF7D6FF054A13685B005B0813600022034B1A600F
:401180000820FFF765FE10BD00000940880F0940014B58607047C046CC01002010B5802252001C4B1A601C4A1C4B1A601C4B1D4A136000241C4A14601C491D4A11601D4A46
:4011C00013601D4B1C600820FFF738FE03210820FFF75CFE19490820FFF746FE184B1C60184B1C604C22FF32174B1A60174B1C60174B1C60174B1C603C3AFF3A164B1A7077
:40120000164B1C70164B1C60164B1C60164B1C7010BDC0460000094077080040600009400701008000030940040309401000FE00100309400002094004020940E912000073
:40124000C80E0940880E0940480F0940080F0940C80F0940880F0940F5010020DC010020D4010020D8010020F40100200023044A1360044A13601022034B1A707047C046EE
:40128000680009406C000940F501002010B50E4A13685B005B08136000230C490B600C490B600C4804680C49214001600B490B600B490B6010210B4B1970136880210906B6
:4012C0000B43136010BDC04600000940680009406C00094060000940FF5CFFFF880F0940C80F0940F501002010B5CA4B1B68002B00D09847C84B1B68DB0702D50022C74BD9
:401300001A60C74B1B789B0622D4C64B1A680223FF331A421CD0C24B1B78DB070AD5C24A137802218B431370117809230B43DBB213700AE0BC4A137820218B4313701178B0
:4013400070235B420B43DBB213700022B44B1A70B34B1B789B0600D55AE1B14B1B78DB0600D453E1AF4B1B689B0740D50222AF4B1A60AF490B681D321A40096880231B0269
:401380000B4000D001239B18AA4A1278D2B2934206D2A54A117804230B43DBB2137006E0A44A12789B1AA4490A68D31A0B60A24B1A68A24B1A600023A14A13609D4A137004
:4013C000A04B1A68802149020A431A6019689E4A0A401A60944A137802218B431370117801230B43DBB2137010228D4B1A708D4B1B681B0739D508228C4B1A60934B1B68BD
:401400009B040CD414E0924B1A68924909688A1891490968C9B211701A6801321A608F4B1B68DB06EFD1894A11688D4B0B4013608C4B1B689B0605D57B4A117840230B43C2
:40144000DBB213700022884B1A60884A854B1A60754A137820218B431370117810230B43DBB213706E4B10221A706E4B1B685B0648D501227E4B1A607E4B1B68DB0610D534
:401480000F326F4B1A606D4B1A686B4B1A60664A117802230B43DBB213701222604B1A7025E0754B1B686A4A12689B1A072B03D804226D4B1A6011E0082B06D1634A136875
:4014C000A02109020B43136008E0604A1368802189010B4313600822634B1A60524A117820230B43DBB2137011224D4B1A70634A4E4B1A60624A116808230B431360012205
:40150000604B1A60604B1B681B072AD55A4B1B684F4A1068181A0838082802D9002408200EE001240CE04A4B1A684A4909688A1849490968C9B211701A6801321A60013812
:401540000028F0D1002C08D0404A1368802109020B4313600022444B1A600822414B1A6025E0494B1B685B0721D53B4B1B68384A1168414A126891420DD20121414A116064
:40158000334A1168334800684118DBB20B7013680133136008E002223A4B1A60224A117840230B43DBB2137004222E4B1A60374B1B68DB0620D42BE01F4B1A68344B1B6822
:4015C0009A420CD21C4B1A68324909688A181278D2B231490A601A6801321A600CE0FF222D4B1A60134B1B78DBB20A2B04D8114A13780133DBB213700D4B1B681F22134072
:40160000082BD9D10F3A254B1A6001E0FFF73EFE10BDC046D00100208C0E0940880E0940F50100204C0F0940DC010020400F094008020940F4010020E0010020D401002054
:40164000880F094004020940FFFFFEFF60000940D8010020E80100204003094008030940FF5FFFFFC00F0940C80F0940ED0F0000800E094064000940EC010020FF0F000086
:40168000480F09406C000940CC0F09408C0F0940F0010020E401002040020940800F0940014B18687047C046080100200E4B70B500251E000D4CE41AA410A54204D0AB0070
:4016C000F35898470135F8E700F066F8084B00251E00084CE41AA410A54204D0AB00F35898470135F8E770BDA4170000A4170000A4170000AC170000002310B59A4203D064
:40170000CC5CC4540133F9E710BD03008218934202D019700133FAE770470000801800008900000000000000DA0300001A0300002A0300003A0300004A0300005A030000C0
:401740006A0300008A0300007A0300009A030000AA030000BA030000CA030000380600005806000070080000A406000060070000700800006E0700009C070000A4060000BF
:40178000BE07000036080000FA050000A9112119003C010143000000F8B5C046F8BC08BC9E46704729010000BD010000F8B5C046F8BC08BC9E46704701010000D017000055
:4017C0008800002088000000E800000000000000000000001C17000020170000010000000000E02EC05D00001800000000366E01000000000000000000000000000000007E
:4018000000000000000000000000000000000000941700000000000000000000000000000000000000000000000000000000000000000000000000000000000000000000FD
:4018400000000000000000000000000000000000A80000200000000000000000000000000000000000000000000000000000000000000000000000000000000000000000A0
:401880000000000000000000000000000000000000000000000000000000000000000000000000000000000000000000000000000000000000000000000000000000000028
:4018C00000000000000000000000000000000000000000000000000000000000000000000000000000000000000000000000000000000000000000000000000000000000E8
:4019000000000000000000000000000000000000000000000000000000000000000000000000000000000000000000000000000000000000000000000000000000000000A7
:401940000000000000000000000000000000000000000000000000000000000000000000000000000000000000000000000000000000000000000000000000000000000067
:407FC000000000000000000000000000000000000000000001010000000000000000000000000000000000000000000000000000000000000000000000000000000000007F
:0200000490303A
:0200000054EDBD
:0200000490402A
:200000000000000000000000000000000000000000000000000000000000000000000000E0
:0200000490501A
:0C0000000002192111A9000119286696C0
:0200000490600A
:0100000001FE
:00000001FF